:020000040800F2
:100000000000011061760708991F000809360208F0
:10001000017707080177070801770708000000004B
:10002000000000000000000000000000D92B0008C4
:10003000DD2B000800000000E12B00088DA3000864
:100040000177070801770708017707080177070894
:1000500001770708017707086563000869630008EE
:10006000017707086D6300087163000829260008FE
:100070003D2600085126000865260008792600085C
:100080008D260008A12600080177070801770708D8
:1000900001770708017707080177070875630008EB
:1000A000D5240008FD24000825250008C1240008E7
:1000B0004D2500086125000875250008017707080F
:1000C0000177070801770708017707080177070814
:1000D000017707089D1F0008A91F0008B51F000829
:1000E0007963000801770708E52B0008B1250008AF
:1000F000D9250008012600089D250008B52600081E
:1001000001770708017707088925000801770708A4
:10011000C11F0008CD1F00080177070801770708F5
:10012000C9260008D9260008E9260008F926000893
:1001300009270008017707080177070801770708F2
:10014000017707080177070801770708312C0008B5
:100150001D2700083127000845270008D91F00087F
:100160000177070801770708017707080177070873
:100170000177070801770708017707080177070863
:08018000017707080177070869
:1001C000D0E907239A423CBFC1685218D01A704741
:1001D000D0E9092300699A4238BF1218D31A0138AE
:1001E000C01A7047D0E90902101AB0FA80F040092D
:1001F000704700BF0246036A4069D168C05C0133A2
:100200008B4228BF00231362704700BF436A826994
:10021000D154436A0169426B01338B4228BF0023EA
:100220004362D36843F08003D3607047436B188800
:1002300010F0100002D01A889B880120704700BF80
:10024000436B99891A88890610B504460AD592B27B
:10025000900607D5E26A002A2AD09888216B80B2DE
:100260009047636B99891A88090692B210D51006D7
:100270000ED5D4E909128A4215D0A1692069895C9A
:100280000132C9B29980B2FBF0F100FB1122A262E7
:10029000998A1A88C90592B204D5D20744BF4FF68D
:1002A000F7721A8010BDDA6822F08002DA60EFE798
:1002B0009B88E2696169DBB28B54E269E168636B38
:1002C0000132B2FBF1F001FB1022E261CAE700BF8C
:1002D00042685379032B0FD8DFE803F00B080502BF
:1002E00010684030704710683C30704710683830F4
:1002F00070471068343070470020704703694268C7
:100300001F2B10B423D95168203B4FF0200C0CFA5E
:1003100003F3194218D08169087C032813D0002404
:100320000C744868C968046890F805C08868194961
:1003300031F81CC0A18989B221EA0C01A1810168B0
:1003400021F001010160D3605DF8044B7047116832
:100350004FF0200C0CFA03F31942F5D08169087CA8
:10036000032813D000240C744868C968046890F806
:1003700005C08868074931F81CC0A18989B221EA03
:100380000C01A181016821F0010101605DF8044BBD
:1003900093607047B87B070802683649002310B4A1
:1003A00022F00102212488420260036043608360DE
:1003B000C3600361446138D02F4B98422ED02F4B3D
:1003C00098423CD02E4B984240D02E4B984232D08F
:1003D0002D4B984241D02D4B984246D02C4B984201
:1003E00017D02C4B98423CD02B4B984216D02B4B1D
:1003F000984224D02A4B984228D02A4B98421AD0AF
:10040000294B984229D0294B98422ED0284B98420C
:1004100008D14FF03D5243F8AC2C03E04FF4746226
:1004200043F8202C5DF8044B7047224B5DF8044BD9
:100430003D229A607047204A43F8642CF2E74FF45B
:1004400074125DF8044B43F8382C70474FF0746217
:100450005DF8044B43F8502C7047184A43F87C2C45
:10046000E0E73D2243F8082CDCE7154A43F8942CDA
:10047000D8E700BF106002402860024040600240A0
:10048000586002407060024088600240A0600240F4
:10049000B860024010640240286402404064024098
:1004A000586402407064024088640240A0640240C4
:1004B000B8640240006002403D000020400F002070
:1004C00000003D2082B00922274B8DF80720DA6812
:1004D000D00319D4DA68D10640D4DA68D20541D401
:1004E000DA6812F0E00F3BD1DB6813F0020F0CBFAB
:1004F000092308238DF807309DF80730012B0AD017
:100500009DF8070002B0704701238DF807309DF871
:100510000730012BF4D1144A12E0D368DB0519D45B
:10052000D36813F0E00F17D1D36813F0020F0CBF9C
:10053000092308238DF807309DF80730012BDFD100
:10054000D168C8034FF00103F4D4D368D906E4D5C9
:100550000623EFE70223EDE70723EBE70623D4E7C3
:100560000723D2E70223D0E7003C0240024B01F010
:1005700001011970704700BF00000020704700BFE4
:10058000704700BF704700BF01207047034B1868D9
:100590005B68C01AC0F30A00704700BFC01D00208E
:1005A000064B986800B970479B68052B03D1044B34
:1005B0001878C0B270470020704700BFC01D0020EF
:1005C00000000020012380F849307047054BD868AF
:1005D0001B69984234BF03F1FF3303F2FF73181A0B
:1005E000704700BFC01D002010B5D0F8E8350446A4
:1005F0001B699847032384F81231002010BD00BF07
:1006000008B5042290F81211D0F8E83580F81311DB
:1006100080F81221DB689847002008BD08B5D0F8A3
:10062000E435DB6903B19847002008BD08B5D0F870
:10063000E4351B6A9847002008BD00BF08B5D0F814
:10064000E4355B6A9847002008BD00BF10B5064C32
:100650006068FF2806D005494A69183100F040F863
:10066000FF236360002010BD00000020C01D00209B
:10067000432301480B8070470800002012230148E3
:100680000B8070474C000020042301480B8070470A
:1006900060000020704700BF704700BF704700BF78
:1006A000704700BF704700BF014B00229A6070473F
:1006B000C01D0020704700BF054B002005229A6036
:1006C000186218605862586083F82800704700BFAD
:1006D000C01D0020014B002098607047C01D002005
:1006E000212838B50C4621D0222813D020280FD13C
:1006F00071B1072A0CD1144D6B6A13B1096800203F
:1007000098472168A288A379E9622A8685F8323061
:10071000002038BD0029FBD0022AF9D10A4A136A09
:10072000002BF5D00988506B9847F1E70029EFD0EE
:10073000072AEDD1044BDA6A0A601A8E8A8093F890
:1007400032308B71E4E700BFC01D00202DE9F84373
:10075000194D2C68C4F5006888450E46074619D324
:1007600005F1380020443946324674F021FD344406
:10077000C4F30A042C606B6803F2FF731B1BC3F302
:100780000A03802B9DBF012385F82830022000201A
:10079000BDE8F88305F13809014609EB0400A4F52A
:1007A00000644246344474F003FD07EB080122461E
:1007B000484674F0FDFCDDE7C01D0020704700BF17
:1007C000704700BFD0ED007AD0ED036A30EE677A53
:1007D000E6EE877AB0EE670AC0ED007A704700BF98
:1007E00090ED017AB5EE407AF1EE10FAF0EE407A33
:1007F00009D19FED0D7A60EE870AF7EE006A86EE6A
:10080000A07A80ED017A31EE077A90ED000A80ED52
:10081000021AC1EE076A77EEC07AC0ED036AA6EE4F
:10082000A70A80ED000A7047DB0FC940D0ED056ACA
:10083000D0ED017A90ED066AD0ED025A90ED035AA0
:10084000C0ED066AB0EE407A26EEA70AD0ED007A37
:1008500080ED057AA7EE870AD0ED077AA5EE860A25
:1008600090ED086AD0ED045AC0ED087AA5EE670A4B
:10087000A5EEC60A80ED070A704700BFF0EE406A99
:10088000D0ED007A90ED050A90ED037A90ED016AC3
:10089000D0ED025AA7EEA60AD0ED047A27EE407AF0
:1008A00067EEC07AA6EE267AE5EEA67A90ED066AA5
:1008B000C0ED067A36EE076A80ED056A704700BF24
:1008C00003685A1C02601970704700BF2DE9F04F91
:1008D000D0E90031856889B04A1C00EB81045918C1
:1008E000F1EE407A0591002D92FBF3F103FB11220A
:1008F000426000F1800A84ED200AC4ED407A00F5E0
:10090000807240F38780691C012603F1FF3B06914A
:100910004FF002090795B6460599A1EB090090FB37
:10092000F3F103FB1100411C91FBF3F403FB1411E1
:100930000AEB800802EB800CF14501EB0E00D8EDCC
:10094000006A90FBF3F49CED006AA3EB090603FB3D
:10095000140055DDCDE90198CDE903C637460D46B3
:10096000044641E0AB420AEB840902EB840804F13F
:10097000010441DD0AEB850C02EB85060135DCED57
:10098000007AD8ED005A96ED007AF4EEE67AF1EEB0
:1009900010FA0FDD99ED005AF4EEC57AF1EE10FA77
:1009A00008DDB4EEE65AF1EE10FA58BFF0EE456AF3
:1009B000CCED006AB4EEC67AF1EE10FA0DDDB4EEBD
:1009C000E57AF1EE10FA08DDF4EEC65AF1EE10FA0F
:1009D00058BFB0EE656A86ED006A01375F4530DAD0
:1009E000B0EE476AF0EE676AA342BBDCAB429046CA
:1009F000D1464FF00104BDDC1646D4460125BEE7C2
:100A000006990EF1010E714509F102090BF1FF3B48
:100A100082D1079D0599491B91FBF3F003FB10134D
:100A20000AEB830102EB830391ED000A93ED007A58
:100A300030EE470AF6EE007A20EE270A09B0BDE84C
:100A4000F08FDDE90198DDE903C698ED006ADCED81
:100A5000006A41E08B420AEB800C02EB800700F158
:100A6000010041DD0AEB810502EB81040131D5ED86
:100A7000007AD7ED005A94ED007AF4EEC67AF1EEE2
:100A800010FA0FD59CED005AF4EEC57AF1EE10FA8B
:100A900008D5B4EEC65AF1EE10FAD8BFB0EE456AEA
:100AA00085ED006AB4EEE67AF1EE10FA0DD5B4EEFB
:100AB000E57AF1EE10FA08D5F4EEE65AF1EE10FA06
:100AC000D8BFF0EE656AC4ED006A01365E4597DA7C
:100AD000F0EE476AB0EE676A8342BBDC8B42174692
:100AE000D4464FF00100BDDC144655460121BEE757
:100AF00003685A1C02601970704700BF024BD3F89C
:100B0000380803681B681847C01D0020007970472B
:100B10000079C0F34010704700794009704700BF6A
:100B200090F83C20034602F0FF0012B1002283F847
:100B30003C2070474FF4006383817047074B10B42B
:100B400003F11001002453F8042B824208BF43F83C
:100B5000044C8B42F7D15DF8044B7047FC25002014
:100B600030B50F4A83B092F84C580191B5B9D2F81C
:100B700050589DB12B681A6882B19B6873B10446C6
:100B80002846984750B12B68019922461C68284690
:100B90000B46214603B0BDE83040084703B030BDE6
:100BA000C01D00200B4B70B5D3F854688EB133686C
:100BB0001A6872B19B6863B1054630460C46984787
:100BC00038B133682A46196830462346BDE870407C
:100BD000084770BDC01D00200120704701207047EC
:100BE00001207047012070470120704741B10D4B33
:100BF00003F65803D3ED007AF8EEE77AC1ED007AF8
:100C00007AB1084BDFED086AD3F85C38A3F5D54319
:100C1000333B07EE903AF8EEE77A87EEA67A82ED5C
:100C2000007A7047C01D00200000C84201207047B4
:100C30000120704710B4634C0023224692F904103F
:100C4000012902F10C0243D00133072BF6D12246D1
:100C5000002392F90410022902F10C024BD0013357
:100C6000072BF6D12246002392F90410032902F142
:100C70000C025BD00133072BF6D12246002392F9F8
:100C80000410042902F10C026DD00133072BF6D1B8
:100C9000002394F90420052A04F10C0477D00133D1
:100CA000072BF6D1484B1B68D90353D5474B016836
:100CB00003F1C80402E01433A3424BD01A689142F6
:100CC000F9D1DA68D201F6D501205DF8044B7047FE
:100CD0003F4A03EB430302EB8303D3F86038EBB1E5
:100CE0003C4A037992F8A1C09C45EDD092F8A0202F
:100CF0009A42ACD1E8E7364A03EB430302EB8303A5
:100D0000D3F8603863B1334A037992F8ED1299420F
:100D1000DAD092F8EC229A42A4D1D5E7224698E79D
:100D200022460C3212F9081C0329A3D1284A03EBEE
:100D3000430302EB8303D3F86038002B3FD0254AEE
:100D4000037992F839159942BED092F838259A4223
:100D500093D1B9E701795DF8044B303901298CBF93
:100D60000020012070471A4A03EB430302EB830380
:100D7000D3F86038002B8CD0164A037992F8851787
:100D80009942A1D092F884279A4281D19CE7104AD7
:100D900003EB430302EB8303D3F86038002B81D0CD
:100DA0000C4A037992F8D11999428DD092F8D02942
:100DB0009A4289D0044B1B68D903CBD576E72246EB
:100DC0005DE700BF2026002000000010E00B00209F
:100DD000C01D0020000000200C4B10B5844603F11C
:100DE000C80E002002E014339E450ED01A686245FA
:100DF000F9D1DA688A4218BFD96000F1010403F121
:100E0000140318BFE0B29E45F0D110BDE00B0020E6
:100E10002DE9F84345697DB90768C7F30D08044615
:100E20000E46B8F1000F0AD0D6F80080FFF74AFB53
:100E300009283BD06FF001052846BDE8F883514BE7
:100E40009F422AD303F580439F4224D303F5804376
:100E50009F427FD34C4B9F427FD903F580339F4203
:100E60007ED903F500339F427DD903F500339F42BD
:100E70007CD903F500339F4269D903F500339F42C3
:100E800077D903F580239F4276D9B7F1016F76D3E6
:100E9000052009F027FB4FF00808FFF713FB09288E
:100EA00021D04FF0FF352846BDE8F883374E33692F
:100EB00023F440733361336943F40073336133695E
:100EC00043F001033361C7F80080FFF7FBFA336991
:100ED000092823F001033361ACD123680433236074
:100EE0002846BDE8F883DFF8A490D9F8103023F441
:100EF0004073C9F81030D9F8103043F40073C9F8C2
:100F00001030D9F8103023F0F803C9F81030D9F8B0
:100F1000103043EA080343F00203C9F81030D9F84F
:100F2000103043F48033C9F81030FFF7CBFAD9F80A
:100F3000103023F00203C9F81030D9F81030092816
:100F400023F0F803C9F810303FF46EAFA9E74FF073
:100F50003808A2E74FF010089FE74FF018089CE709
:100F60004FF0200899E74FF0280896E74FF0300837
:100F700093E74FF0400890E74FF048088DE74FF0B7
:100F800058088AE700400008FFFF0008003C0240C4
:100F90002DE9F0410446D0E90030134483421DD8C6
:100FA0000D4601EB0208B2B104F10C07002601E086
:100FB000A84510D023695A1C2261234415F8011B4F
:100FC0001973042AF4D139462046FFF721FFA845BA
:100FD000C4E90460EED16069BDE8F0814FF0FF30F4
:100FE000FAE700BF2DE9F047038A8489A4B21C40C8
:100FF00082B047D0814688464FF0004501F14C074A
:1010000001F13406B4FA84F325FA03F2D24391B223
:10101000A9F8101014401B3BB8F1000F5FD0042B4F
:101020002ED8DFE803F052483D320300D8F80C30E8
:10103000D9F82CA033B19B6823B11FFA8AF108F1CB
:1010400004009847D8F8243033B19B6823B11FFAC5
:101050008AF108F11C009847D8F83C3033B19B68FE
:1010600023B11FFA8AF108F134009847D8F85430B8
:1010700033B19B6823B11FFA8AF108F14C009847FD
:10108000002CBFD102B0BDE8F087D8F80C30D9F8F9
:1010900034105B6808F104009847002CB2D1F1E7E6
:1010A000D8F82430D9F838105B6808F11C0098474C
:1010B000002CA7D1E6E7D8F83C30D9F83C105B68A3
:1010C00030469847002C9DD1DCE7D8F85430D9F849
:1010D00040105B6838469847002C93D1D2E7042B28
:1010E00007D8DFE803F01903140F0A00D9F83C30E1
:1010F0000193019B002C85D1C4E7D9F82C300193D2
:10110000019BF7E7D9F834300193019BF2E7D9F856
:1011100038300193019BEDE7D9F840300193019BF2
:10112000E8E700BF2DE9F0410C4E356873691D40BA
:1011300011D0DFF82C800127B5FA85F4C4F11F0423
:1011400008EB840307FA04F4D3F8B408036898475B
:10115000A5437461F0D1BDE8F08100BF003C0140BF
:10116000C01D002010B5044629B990F81121032AAA
:101170000DD0002010BDD0F8E4359B69002BF8D0CD
:1011800090F81221032AF4D19847002010BDD0F81E
:1011900090230B46D0F87C138A4219D9521AC0F812
:1011A000902394F803C0D0F880038A4228BF0A46EF
:1011B000BCF1010F92B234D0C4E9E22304F55D71B1
:1011C000C4F88003A4F87433204671F05FF9D0E7C7
:1011D000D0F8E4351B691BB190F81221032A1ED008
:1011E00000234FF480720421C4E94A33C4E94C332C
:1011F00084F81111A4F81C2104F58E71204671F0B9
:1012000045F9636D0D4A1A61E278012AB1D104F201
:10121000CC545C614FF0802219681A60A9E79847A6
:10122000DEE70844C4E9E22304F55D71C4F88003F5
:10123000A4F87433C4F88403C6E700BF180008603C
:1012400038B5044649B990F81131022B11D094F801
:101250001631012B39D0002038BDD0F8E4355B6958
:10126000002BF8D090F81221032AF4D198470020DF
:1012700038BDD0F83831D0F8242193422FD990F8D6
:1012800003C09B1ABCF1010F0D46C0F83831D0F8ED
:1012900028116ED09BB2C0F830314FF48073C0E992
:1012A0004A11C0F8345100F58E71A0F81C3171F06C
:1012B000EDF8C4E9E255C4F8805304F55D71A4F873
:1012C0007453204671F0E2F8C1E73F4B2269D3F82E
:1012D000F4185160002384F81631002038BDD0F88E
:1012E0003C31B3FBF2F502FB15350DBB9A421FD81A
:1012F000D0F8402193421BD24FF48073A0F81C31E8
:1013000000F58E71C0E94A55C0E94C5571F0BEF840
:10131000E378C4F84051012BC4E9E255C4F8805386
:10132000A4F8745308BFC4F8845304F55D71C8E78A
:10133000D4F8E435DB681BB194F81221032A15D0E8
:10134000E27800230521012A84F81111C4E9E2336F
:10135000C4F88033A4F8743304F55D7124D02046BA
:1013600071F094F8636D194A1A6170E72046984746
:10137000E6E79BB21144C0F830314FF48073C0E906
:101380004A11C0F8345100F58E71A0F81C3171F08B
:101390007DF8C4E9E255C4F8805304F55D71A4F802
:1013A0007453C4F884538CE7C4F88433204671F036
:1013B0006DF8636D0548186104F2CC525A614FF024
:1013C00080211A68196042E7C01D002018000860DB
:1013D00070B5244C0025636822689A421FD0626869
:1013E00063680133C3F30A0363606168236894F898
:1013F0002830224492F838500BB9284670BD012697
:101400006368226803F2FF739B1AC3F30A03802BFD
:101410000BD8002EF1D1636822689A42DFD194F88C
:101420002830002BD7D00026EAE70023402184F89B
:101430002830C4F8AC3C0123A4F8943CC4F8A81CA0
:1014400094F8FB380849094AC4F8A02C012BA1F5EF
:10145000677008BFC4F8A42C71F07AF8002EDAD0B7
:10146000CBE700BFC01D0020542A0020AC2C002078
:1014700070B5244C94F82C2F012A034603D0022A7D
:1014800008D0002070BDD4F8305F8DB984F82C5F8F
:10149000002070BD002540F20112C0E95455C0E99A
:1014A0005655A0F8442100F5A27171F051F8EDE70E
:1014B000402D1DD940262169134AC3F858610A44BA
:1014C000C3E954220022C3F85C2140F2011203F563
:1014D000A271A3F84421184671F03AF82369334405
:1014E000AD1BC3F30A032361C4F8305F002070BD55
:1014F000AAB2402A01D02E46DDE7022284F82C2F22
:10150000D8E700BFC01D0020F42C002001EB8101B2
:1015100038B500EBC1010E4DB1F88C1304462846D6
:10152000FFF714F988B9E378C4F8A85301214022E1
:10153000012BC4E9EC20A4F89C1308BFC4F8AC53F9
:1015400004F56771204671F003F8002038BD00BF34
:10155000AC2C0020254AD2F83C360E2B04D801339F
:10156000C2F83C360020704770B5214C94F82C3FEF
:101570000021C2F83C167BBB2269E3689A422BD05B
:101580002269E3689A4229D92569C5F50065402D8D
:1015900028D8ABB2402B13BF2E464026022301238E
:1015A000226984F82C3F134BC0F858611344C0E9FA
:1015B00054330023C0F85C3140F20113A0F84431E9
:1015C00000F5A27170F0C4FF23693344AD1BC3F36F
:1015D0000A032361C4F8305F002070BDE568236909
:1015E000ED1AD4E701234026DAE700BFB82E002029
:1015F000C01D0020F42C002090F848305A1C0344F1
:10160000D2B280F8482083F8341090F849300BB1FA
:10161000132A01D971F0A0B8704700BF002280F8EA
:10162000492071F099B800BF2DE9F041B0F8CC1510
:10163000D0F8CE35B0F8D255B0F8D085C0F84051CA
:10164000012284B080F8112101F01F02012A044612
:1016500000F2CC56ADF80810C1F3072ECDF80A30D1
:10166000ADF80E504FEA134C51D0022A7746C9B25A
:101670009BB210D0002A55D1BEF1090F4BD8DFE83C
:101680001EF08900AD004A00C8004A005C01DF007E
:101690004A001301330101F0600120295FFA8CF246
:1016A00072D0012F00F0BA81032F00F0A381AFBBED
:1016B00090F81231022B00F0E681032B2BD11CF0A5
:1016C000800F40F0EC8102EB820200EBC20393F842
:1016D0007623003A18BF0122C24D02234FF48071D5
:1016E000C4E94E3384F81131C4F83031A4F81C1128
:1016F00005F24C630021C4F83411C4E94A3304F5FF
:101700008E712046C5F84C2670F0C0FE06E090F8B9
:101710001231032B0ED0204670F046FE002004B09C
:10172000BDE8F08101F0800170F076FE002004B089
:10173000BDE8F0815FFA8CFCBCF1010FEBD8D0F86A
:10174000E43502A99B689847BDF80E30002BE5D11F
:10175000C4E94A33C4E94C3304214FF4807284F85D
:101760001111A4F81C2104F58E71204670F08EFE34
:10177000636D9D4A1A61E278012ACFD15E614FF014
:10178000802219681A60C9E7D0F8E43502A99B687D
:101790009847C3E790F81231023B012BBBD8914B1D
:1017A000D0F818210021C3F8481612B10222C3F85C
:1017B00048268E4A02234FF480700021C4E94C3140
:1017C000A4F81C01C4E94E33C4E94A2284F811315B
:1017D00004F58E71204670F059FE9FE790F81221B3
:1017E000023A012A97D8012B98D1D0F8E435002588
:1017F0009B68C0F8185102A9984704224FF48073DF
:10180000C4E94A55C4E94C5584F81121A4F81C31A7
:10181000A9E7012B00F03E81022B7FF47FAF5FFA36
:101820008CF3002B7FF47AAF03694FEA1C22023A53
:101830005B68032A00F2C081DFE802F0B6CED2D0A6
:101840001E0A022EADF8065000F08D81032E00F026
:101850005181012E7FF45FAFD0F8EC3580781B68A2
:101860000DF106019847BDF80630002B3FF456AF46
:10187000BDF80E20002A3FF451AF934228BF134613
:101880004FF480720221A4F81C210022C4E94A000E
:1018900084F81111C4E94E33C4E94C3204F58E7159
:1018A000204670F0F3FD39E7012D7FF434AF90F856
:1018B0001231022B00F00B81032B7FF42CAF4FF47D
:1018C000807200F588730221A0F81C21002280F8A4
:1018D0001111C0E94E55C0E94A33C0E94C5200F538
:1018E0008E7170F0D3FD19E7DDB23E4F012D87F800
:1018F00040563FF610AF90F81231022B00F0DB801B
:10190000032B7FF408AF002D00F0388190F8101100
:10191000012910D0D0F8E4355B68984797F8401655
:10192000D4F8E43584F810111B6820469847D4F8A1
:10193000E8359B68984700230AE758EA05027FF4D8
:10194000EAAE90F8121103293FF4E5AE03F07F05EB
:1019500080F814510069114663F30A1103681943B2
:101960000423016084F811314FF48073C4E94A22E2
:10197000C4E94C22A4F81C3104F58E71204670F0A5
:1019800085FD636D184A1A61E278012A06D0002DA0
:1019900000F0FF80022384F81231BFE65E614FF051
:1019A000802219681A60F2E70221114861F30613D8
:1019B0000022C0F8F4380423C4E94A22C4E94C22C6
:1019C00084F8113101224FF4807304F58E7184F88C
:1019D0001621A4F81C31C8E60321E6E70521E4E757
:1019E0000421E2E7B82E002018000860003500202E
:1019F000C01D002090F81211022944D003297FF461
:101A00008AAE23B9510602D0114670F005FDD4F814
:101A1000E4359B6802A9204698478CE790F812119C
:101A2000022930D003297FF476AE002B7FF476AE06
:101A300012F07F013FF47FAF1CF0800F40F0AD80CB
:101A400002EB820100EBC10181F8763381F8753336
:101A5000282381F8742303FB020300EB820193F82F
:101A60007723496D0B68023A012A23F400138CBFD7
:101A7000C3F30072012262F31C73D4F8E4250B60F7
:101A8000936802A9C7E753063FF448AE114670F0C9
:101A9000C3FC43E6D0F8E425C0F81831F0E702F0C3
:101AA0007F0202EB820200EBC20393F81E21003A90
:101AB00018BF012210E6002D3FF49FAE0121032242
:101AC000D0F8E43580F8101180F812212CE73B4A59
:101AD00080F811314FF480710023A0F81C11C0E987
:101AE0004E55C0E94A22C0E94C5300F58E7170F0A2
:101AF000CDFC13E6DBB2052B3FF60DAEDFE803F0BD
:101B00002B231B130B03D0F8EC3580789B690DF168
:101B100006019847A7E6D0F8EC3580785B690DF1AF
:101B2000060198479FE6D0F8EC3580781B690DF1E7
:101B30000601984797E6D0F8EC358078DB680DF120
:101B4000060198478FE6D0F8EC3580789B680DF158
:101B50000601984787E6D0F8EC3580785B680DF190
:101B6000060198477FE6D0F8E43580789B6A0DF14E
:101B7000060198474670C4F8F00574E60222D0F8D2
:101B8000E43580F8122180F810515B6829469847A7
:101B900033E6012384F81231C0E5282202FB01005C
:101BA00080F81C1104EB810180F81E3180F81DE1E2
:101BB00090F81F21896955E70121F6E6FC340020E1
:101BC00070B50B7813F060020D46044624D0202A2D
:101BD00004D0204670F0E8FB022070BDCA88487827
:101BE0001AB31B0640D5314E3146FEF779FDEB881E
:101BF0004FF480720221A4F81C21002284F81111F4
:101C0000C4E94E33C4E94A66C4E94C3204F58E7126
:101C1000204670F03BFC06E04B780A2B10D00B2BD3
:101C200008D0062BD5D0002070BD02221144FEF74B
:101C300057FDF8E78B78B3BB1D4AC2F85036F2E780
:101C4000022180F811114FF48071A0F81C1119497C
:101C50000123C0E94A11C0E94E33C0E94C3200F516
:101C60008E7170F013FCDEE71349144B4860E07886
:101C70005A610021183301284FF00305C4F88C1372
:101C8000A4F87413C4E9E42284F81151C4F8882339
:101C9000C4F8803304F55D7108BFC4F8843320466E
:101CA00070F0F4FBBFE770F07FFBBCE7D81D0020AD
:101CB000B82E00200835002000000020C01D0020A4
:101CC00070B5002540260446A0F87453C0F87C6324
:101CD00080F8775300F55D7170F006FD4FF4807366
:101CE000A4F81C3104F58E712046C4F8246184F8F0
:101CF0001F51A4F8225170F0F7FCD4F8E835A07811
:101D0000012284F812215B689847284670BD00BF05
:101D10002DE9F04140F20113044601260225402737
:101D2000A0F84431C0F84C71A0F84A61A0F84751BE
:101D300000F5A27104F5677870F0D6FC41462046A4
:101D4000A4F89C63C4F8A473A4F89F5370F0CCFC6F
:101D50004FF48173A4F86C310823C4F87431032361
:101D600084F86F3104F5B6712046A4F8725170F012
:101D7000BBFC0D4BA3F85050FEF79EFC0022C4F8AC
:101D8000B423E278094BC4F8A833B2422046C4F821
:101D9000B073A4F89C6308BFC4F8AC33414670F03C
:101DA000D7FB0020BDE8F08100000020AC2C002013
:101DB00038B50122044640F20113A0F84431012550
:101DC000114670F079FC294620460022A4F89C5365
:101DD00070F072FC4FF48173A4F86C31204602213C
:101DE0002A4670F069FCFEF775FC002038BD00BF84
:101DF00008B502486AF004F9014808BD64240808DF
:101E00000C35002008B502486AF0FAF8014808BD10
:101E1000742408080C35002008B502486AF0F0F870
:101E2000014808BD7C2408080C35002008B502488C
:101E30006AF0E6F8014808BD882408080C3500203F
:101E400008B502486AF0DCF8014808BD9424080887
:101E50000C3500202DE9F047254F264ED7F8548742
:101E600082460A4605E0D7F85437A3EB0803322B25
:101E70003AD896F82C3F002BF5D19AB3524402F190
:101E8000FF390AF1FF3AF36832690133C3F30A03F9
:101E90009A421AD1D7F85437A3EB0803322B23D830
:101EA00008F0C0FA04460D4608F0BCFA001B61EBCE
:101EB0000501B0F57A7F71F10001F5D3F36832695D
:101EC0000133C3F30A039342E4D0F268F3681AF8CB
:101ED000011F32440133C3F30A03CA4582F8341F99
:101EE000F360D0D1002000E00220BDE8F08700BF01
:101EF000B82E0020C01D0020F8B50F4B986800B91F
:101F0000F8BD9B68052BFBD10C4B1B78002BF7D041
:101F10000B4E002AD6F854770D461446F0DD2146C4
:101F20002846FFF797FFD6F854370028E8D0DB1B88
:101F3000322BF4D9F8BD00BFC01D002000000020E6
:101F4000B82E00201049114BD1F8882042F47002BD
:101F500010B4C1F888201A680D4C002042F001022C
:101F60001A6098601A6822F0847222F480321A6033
:101F70005C601A68074C22F480221A60D8608C607A
:101F80005DF8044B704700BF00ED00E000380240F0
:101F90001030002400000008704700BF0148FEF721
:101FA0004FB900BFAC0C00200148FEF749B900BF93
:101FB000680000200148FEF743B900BFB4020020CA
:101FC0000148FEF73DB900BF000500200148FEF7BB
:101FD00037B900BF4C0700200148FEF731B900BFF8
:101FE00098090020704700BF38B5D0E9004007EEDF
:101FF000902A0068324A334B2468D3F8F43E2468B0
:10200000013990428DB210D002F5806290420CD01E
:1020100002F57052904208D002F58062904204D0DE
:1020200002F58062904218BF5B0807EE103AF8EEA6
:10203000677AB8EE477ADFED246A87EE270A30EE3A
:10204000260A70F07DFD1E492388421E8C4292B202
:102050009BB21AD01D498C4217D0B4F1804F1FD0CB
:10206000A1F580318C421BD001F580618C4217D0E4
:1020700001F580618C4213D015498C4219D123801F
:102080000123E5622285A38238BD23F45C739BB2F1
:1020900023800023E562228523860123A38238BDA5
:1020A00023F45C739BB223800123E5622285A38223
:1020B00038BD08498C42E2D023F440739BB2DEE77E
:1020C00000000140000000200AD7233C000401402A
:1020D000001000400014004070B54268937903F08E
:1020E000020E13F004033AD175469C469E464FF407
:1020F000807001235479032C30D8DFE804F08E621D
:1021000002361468704E228C22F480721204120C73
:102110002284228C22F4007212042B43120CA58814
:1021200042EA0322A38B23F073031B041B0CB4426B
:10213000ADB243F0600300F09B8006F58066B442C8
:1021400000F09680A580A383E1632284A38B23F013
:1021500008031B041B0C43F00803A38370BD00207D
:1021600005464FF0040C0346C4E71268564E148C23
:1021700024F480542404240C1484148C24F4005477
:1021800024042B43240C958844EA0334938B23F4D2
:10219000E6431B041B0CB242ADB243F4C04375D0FE
:1021A00006F58066B24271D09580938311641484E1
:1021B000938B23F400631B041B0C43F40063938391
:1021C00070BD1468404E228C22F010021204120CD2
:1021D0002284228C22F0200212042B43120CA588A8
:1021E00042EA0312238B23F4E6431B041B0CB44284
:1021F000ADB243F4C04359D006F58066B44255D021
:10220000A5802383A1632284238B23F400631B0412
:102210001B0C43F40063238370BD1268148C24F0FC
:1022200001042404240C1484148C968824F00204E1
:1022300024042B43240C1C43138B234D23F07303E2
:102240001B041B0CAA42B6B243F0600323D005F571
:102250008065AA421FD09680138351631484138B28
:1022600023F008031B041B0C43F00803138370BD09
:1022700022F4006242EA0E2222F4806292B225F435
:10228000405542EA0C2245EA00155BE725F48045FB
:1022900045EA801588E726F4407606434FF6F3704A
:1022A000204040EA0E0040EA0C04D4E722F080020D
:1022B00042EA0E1222F0400292B225F4406542EA50
:1022C0000C1245EA80059BE7000001402DE9F04F24
:1022D000614BD3F8587791B027B1604A0321384653
:1022E000FFF782FE38460021FFF7F6FE7868DFF838
:1022F0007C91D0F80080066909F6F8624D01013141
:102300005359734013F47C5407D01029F6D100239D
:10231000FB60002011B0BDE8F08F09EB050302EB74
:10232000050C93F8143FC7F80CC0002BF1D1B8F896
:102330004430DFF83CA16FEA43436FEA53439BB25A
:10234000A8F84430B8F800309BB243F08003A8F8F6
:10235000003090F805B083790AEB0B015B07087A2F
:10236000B8F820104CBF0423012383409BB289B2EC
:1023700021EA0301A8F82010B8F8201089B20B4315
:10238000A8F82030B8F8003035499BB243F001037B
:10239000A8F80030DCF804308B4256D031490B6B82
:1023A00043F480030B632A440723A94460469383C4
:1023B000394669F04DFED9F8005F2846FDF7ECFF7D
:1023C0002B6823F001032B60FDF7E6FF0023CDE926
:1023D0000C33CDE90E3306930A93BBF1030F05D8F6
:1023E000DFE80BF0302D022A08F13C04F6B20AEBCC
:1023F000860A40F62B4205921B48DAF80C3001930E
:102400004FF480614FF48042079109924FF480515C
:102410004022CDE9030208914FF40033284601A978
:102420000B93029469F068FE2B68012043F01003BF
:102430002B6011B0BDE8F08F08F14004D6E708F139
:102440003804D3E708F13404D0E7A1F520510B6B31
:1024500043F400130B63A6E7B82E0020009F24006E
:1024600000600240003802408C6C00200000002018
:10247000B87B070838B5104DD5F8584724B10F4A36
:1024800064212046FFF7B0FD00212046FFF724FE1F
:102490006368012285F85C271A68B2F844306FEA55
:1024A00043436FEA53439BB2A2F8443013889BB274
:1024B00043F00103138038BDB82E0020009F240094
:1024C000024B0348D3F86017FEF78CBDB82E0020EE
:1024D0000000014010B5064C0648D4F86017FEF71E
:1024E00081FDD4F880170448BDE81040FEF77ABD9E
:1024F000B82E0020000001400040014010B5064CFD
:102500000648D4F86017FEF76DFDD4F88417044828
:10251000BDE81040FEF766BDB82E00200000014067
:102520000044014010B5064C0648D4F86017FEF789
:1025300059FDD4F888170448BDE81040FEF752BD95
:10254000B82E00200000014000480140034B4FF02E
:102550008040D3F86417FEF745BD00BFB82E0020B9
:10256000024B0348D3F86817FEF73CBDB82E002095
:1025700000040040024B0348D3F86C17FEF732BD4D
:10258000B82E002000080040024B0348D3F8701713
:10259000FEF728BDB82E0020000C0040024B034877
:1025A000D3F87C17FEF71EBDB82E002000040140B2
:1025B00010B5064C0648D4F87C17FEF713FDD4F886
:1025C0008C170448BDE81040FEF70CBDB82E002063
:1025D000000401400018004010B5064C0648D4F82D
:1025E0007C17FEF7FFFCD4F890170448BDE81040B4
:1025F000FEF7F8BCB82E002000040140001C00408B
:1026000010B5064C0648D4F87C17FEF7EBFCD4F85E
:1026100094170448BDE81040FEF7E4BCB82E002033
:1026200000040140002000400348D0F8043F13B1EB
:1026300000F6F86018477047000000200348D0F803
:10264000243F13B100F618701847704700000020AF
:102650000348D0F8443F13B100F63870184770476C
:10266000000000200348D0F8643F13B100F6587012
:1026700018477047000000200348D0F8843F13B18A
:1026800000F6787018477047000000200348D0F823
:10269000A43F13B100F6987018477047000000205F
:1026A0000348D0F8C43F13B100F6B870184770471C
:1026B000000000200348D0F8E43F13B100F6D870C2
:1026C0001847704700000020024843680BB10838E3
:1026D00018477047001000200248436A0BB11830B9
:1026E00018477047001000200248436C0BB1383087
:1026F00018477047001000200248436E0BB1583055
:1027000018477047001000200348D0F884300BB100
:1027100078301847704700BF001000200348D0F8F9
:10272000A4300BB198301847704700BF001000204C
:102730000348D0F8C4300BB1B8301847704700BF19
:10274000001000200348D0F8E4300BB1D83018470F
:10275000704700BF00100020214A936803F00C036B
:10276000042B10B43AD0082B1FD01E4B1C4C036016
:10277000A1681D4AC1F30311114491F82C10CB40FC
:102780004360A168C1F38221114491F82C1023FA0F
:1027900001F18160A1685DF8044BC1F342310A4444
:1027A00092F82C20D340C36070475368516813F4EB
:1027B000800F536814BF0D4A0A4AC3F3881301F00F
:1027C0003F01B2FBF1F202FB03F3054A5268C2F388
:1027D000014201325200B3FBF2F3C7E7034BC5E7F6
:1027E000003802400024F400B87B070800127A0089
:1027F00070B5446B8668A38923F400531B041B0C3B
:10280000A381857990F805C02B0303F40051C5F32B
:1028100080000CF001032A029B001CF0020F4FEA1B
:10282000003002F4806218BF43F0080302431A43E9
:10283000238A9BB223F440530B432382A38923F4BE
:10284000B05323F00C031B041B0C1343A381A38A76
:1028500023F440731B041B0C84B0A3826846FFF76B
:102860007BFF234B9C4205D003F580639C4201D043
:10287000029B00E0039BA2891E49120403EB830321
:102880004CBF7600B60003EB8303B3FBF6F3A1FB6A
:102890000302A08952096426000406FB12334FEAA2
:1028A00002121CD41B013233A1FB0313C3F34313E5
:1028B00013439BB223812A07A38A0AD59BB243F014
:1028C0000803A382A3899BB243F40053A38104B0FD
:1028D00070BD23F008031B041B0CA382F2E7DB008E
:1028E0003233A1FB0313C3F342131343E1E700BFE9
:1028F000001001401F85EB51816079E7417177E756
:10290000817175E7F0B589B00023904A0293039373
:10291000136843F48033136003E0029BB3F5A04FC8
:1029200009D0136803F400330393029B013302932D
:10293000039B002BF1D0854B1B6813F4003318BFA9
:1029400001230393039B012B01D000BFFDE77F4BC5
:102950007F491A6C7F4842F080521A640A6842F438
:1029600040420A609A689A609A6842F400429A600B
:102970009A6842F4A0529A6058601A6842F08072D5
:102980001A601A689001FCD5734A40F20571116013
:10299000996821F003019960996841F00201A2F55C
:1029A00080629960936803F00C03082BFAD1936856
:1029B00003F00C03042B00F0C680082B00F0AB8062
:1029C000664A624B66499868664D674E674FC0F32A
:1029D00003100144002491F83C10CA406449E960A6
:1029E0006449586FA960596BC6F8F42E21F0800134
:1029F0005963596F604A614841F080715967196B9A
:102A00000A431A635A6B5A639A6B9A631A6C5C494D
:102A10000A431A64596C5B4A0A435A6448F2FF71CC
:102A200023462246CDE900446FF0BAFE56482346BD
:102A300022464FF6FF71CDE900446FF0B1FE5348D6
:102A4000234622464FF6FF71CDE900446FF0A8FE01
:102A50004F48234622464FF6FF71CDE900446FF000
:102A60009FFE4C48234622464FF6FF71CDE90044B5
:102A70006FF096FE4848234622464FF6FF71CDE997
:102A800000446FF08DFE4548234622464FF6FF7105
:102A9000CDE900446FF084FE4148234622464FF6BC
:102AA000FF71CDE900446FF07BFE234622464FF6CE
:102AB000FF713C48CDE900446FF072FE04A8FFF7B7
:102AC0004BFED5F8FC200499D6F8F43E364842F087
:102AD0008072C5F8FC20354AC2F8B00F5460106807
:102AE00040F0010010604FF47A72B3FBF2F3013B47
:102AF000B3F1807F2E4AB1FBF2F2C7F8982708D2D3
:102B00004FF0E022F0215361072385F823109461F0
:102B1000136109B0F0BD5168536852684902C2F3AD
:102B200088124CBF23490D4903F03F03B1FBF3F377
:102B300003FB02F2054B5B68C3F3014301335B0007
:102B4000B2FBF3F23DE71B4A3BE700BF003802400F
:102B50000070004008544007003C02400024F4008C
:102B6000B87B070800ED00E000000020B82E002030
:102B70000003FA0500000008FF9167000000024012
:102B8000FFC9FE103357070000040240000802404E
:102B9000000C0240001002400014024000180240E5
:102BA000001C02400020024055CEACC5001000E0E1
:102BB00040420F0000127A0082B0064B00220192C0
:102BC0000193019B03EB80030193019B196002B009
:102BD000704700BF50280040704700BF704700BFDB
:102BE000704700BF10B5104C94F8023923B90F4B51
:102BF0004FF480225A6110BD4FF0E022D2F8103D10
:102C000023F00603C2F8103DFFF79CF9D4F8083909
:102C10009B68DB07EBD5D4F8042A136823F0030183
:102C200061F307031360E2E7C01D0020003C014090
:102C30002DE9F04FA14CD4F804395A69D5078BB06F
:102C400002D50BB0BDE8F08F5A699B6912EA030107
:102C5000F7D0C1F307430803019300F1DD80019B26
:102C60005D073CD48807CEB203D5D4F804390222DC
:102C70005A610029C0F244820A05C1F3072500F118
:102C80009581370707D58E4B8E48DB689847D4F877
:102C9000043908225A61F60600F10A82E80600F1BA
:102CA000BA81A80600F11481019BDA0608D5844B8D
:102CB0008448DB699847D4F804394FF480125A618C
:102CC000019B9B06BDD57E4B7E481B6A9847D4F876
:102CD00004394FF400125A610BB0BDE8F08FD4F8FC
:102CE00008399E69DB691E40B6B2002EBAD0754D18
:102CF0004FF0000B05F118080F46F00740F18180F6
:102D0000D4F80819D8F8002008694B6B23FA0BF3A4
:102D1000DB01DBB203439068034013F00109D8B232
:102D200000F00B824B6B012000FA0BF023EA00034A
:102D30004B6301239360624B62485B685FFA8BF1DF
:102D4000984794F8FB38012B00F07C8219F0800F33
:102D500057D0D5E94CC1D5F82431D8F800E0ACEB18
:102D600001029342DEF8180028BF134680B20333F5
:102D7000B0EB930F45D9D4F8083994F8FB98CDE916
:102D8000026BBA4667469C46B94237D2D5F8243121
:102D9000781A984228BF184600F1030BD5F828315D
:102DA0004FEA9B0BB9F1000F10D182B2033292109F
:102DB000D8F8B8600AD04946013153F8047B37602F
:102DC0008A42F9D1D5E94C71D5F828310144034440
:102DD0008F42C5F82831C5F83411DEF818300AD111
:102DE00095F81C01012202FA00F0DCF8342022EAF6
:102DF0000002CCF834209BB29B45C5D3DDE9026BC1
:102E0000574676080BF1010B05F1280508F1040877
:102E10007FF473AF394625E7D4F808399D69DB693B
:102E20001D402D0C3FF41BAF04F6F808DFF890B0FE
:102E3000029104F64C1600274FF00109C24608E043
:102E40006D0807F1010706F1040608F1280800F0F3
:102E50008E81EA07F4D53068D4F808198368496987
:102E60000B40D9B2DB0740F16D8194F8FB38C0F814
:102E70000890012B07D10169D8F87C33C1F3120106
:102E80005B1AC8F88C33DBF80030F9B2504698472B
:102E900094F8FB38012BD3D1002FD1D194F8093A03
:102EA000052BCDD1D4F84C3907491961074959612F
:102EB00019684FF080211960C2E700BFC01D0020D3
:102EC000F8100020B826002018000860842C00208C
:102ED000D4F80859D4F81029AB68C3F34103022B86
:102EE000136814BF0021032161F30A0313606B68A8
:102EF00043F4807306A86B60FFF72EFCD4F8042916
:102F0000079ED36823F47053D360A86810F0060FAF
:102F1000C0F3410100F039819E499F48314481420C
:102F200040F2AC819D48A6F57401A1F51051814293
:102F300040F2A8819A499B4831448142C0F0A68161
:102F40009948A6F18C71A1F54341814240F2A281DA
:102F50009649974831448142C0F0A08195499648EE
:102F600031448142C0F09E819448A6F1B771A1F529
:102F700058518142C0F09E8191499248314481422A
:102F8000C0F09481904891493044884234BF062073
:102F900005204025012160F38D23D3604FF40053B9
:102FA00084F8FA18A4F8FC5853617DE600238DF8E4
:102FB000133094F80A3A8DF81330854B85485B69D5
:102FC0009847D4F80839D4F80429986894F8023955
:102FD0004FF400615161002B3FF453AEC3077FF5FE
:102FE00050AE94F80D3A012B7FF44BAE9DF81330A0
:102FF000032B7FF446AED4F8043A77491A6842F0BE
:1030000001021A601A6842F003021A600B6943F069
:1030100006030B6135E6D4F80869D4F8041973681F
:10302000002723F0010373600597059B43F02003FD
:103030000593059B67F38A130593059B0B61674B0B
:10304000BC460A690592013B02D0059A9206F8D463
:1030500094F8F92852B1624B03EB820EFF2253F829
:10306000040F8260D86B73458260F8D10B2363F341
:10307000070763F3070C4FF0FF33B3614FF0011301
:10308000F3617761C6F810C03368564823F4FE63D5
:10309000336094F8FB28D4F84C39012A18616DD0BC
:1030A0004FF480534B614A4B4A481B699847F8E5F7
:1030B000D4F804399A6922F010029A611A6AC2F3AC
:1030C0004340022802F00F0100F09080062812D140
:1030D00001EB810104EBC101D4F8C869D1F8840C7B
:1030E000C2F30A1210443268C4F8C42E3268C4F81D
:1030F000C82EC1F8840C9A6942F010029A61CDE59D
:1031000094F802393BB1D4F8042A136823F0030081
:1031100060F307031360D4F808292D4B2D489D69EF
:103120005368029123F001035360A847D4F804398F
:1031300002994FF000425A619EE5010707D5082326
:1031400093605EE68A0707D50223836078E6C306AC
:103150000FD51023936054E60B077FF571AEDBF8B3
:1031600008305046984733680821996068E602990C
:1031700075E541067AD54023936042E61A4A5A61C2
:103180001A684FF080221A608AE74FF40075092010
:1031900001E700BF401E1BFF3F420F00DFC81000C9
:1031A0002013FBFE20D61300FF69180000D3CEFECB
:1031B00040771B00C05BB3FEC091210040AC2700EC
:1031C000C01D6AFE40E13300803C36FEE09C4100B9
:1031D000F8100020B826002000ED00E0410D0300AB
:1031E000CC26002018000860842C002047F6F070E0
:1031F000104280D0C2F30A1201EB810004EBC00040
:1032000002F1030C5FEAAC0CD0F8786CD4F8C8E992
:103210004FEA810818BF002006D00130DEF80070A8
:1032200046F8047B8445F8D1414404EBC101D1F850
:10323000780C1044C1F8780CD1F8840C1044C1F813
:10324000840C58E7BBF1000F7FF480AD94F8093A85
:10325000042B7FF47BADD4F84C39184A1A61184A14
:103260005A611A684FF080221A606FE5830758BFD1
:1032700081467FF56BAD02239360C2E501214025B5
:103280000E2088E6012140250D2084E601214025FD
:103290000C2080E6012140250B207CE60121402501
:1032A0000A2078E601214025092074E60121402505
:1032B000072070E60121402508206CE61800086010
:1032C000842C00200369416890ED067AF0B4C56A49
:1032D0003B4E876853EA010204BFD6F85417416099
:1032E0006A1C30EE077A0133012A80ED067A036109
:1032F000C26241D090ED075AD0ED096AD6F8544722
:1033000007EE902A70EE455AB8EEE76A611AC5EEEC
:10331000867AB94277EE857A30EE670AC0ED087A90
:10332000E5EE806AC0ED077AC0ED0A6AC0ED096A71
:1033300001D8F0BC7047012A2ADD07EE905AF8EE5A
:10334000E77A86EEA76AB5EEC06AF1EE10FA1FDBE7
:10335000F1EEC67AF4EE677AF1EE10FA18D6D0EDF7
:10336000056AF4EEE76AF1EE10FA14D5037BF3B1C7
:103370000323F0BC03707047D6F8542780ED080A89
:10338000521ABA424FF0000180ED070A4162D0D9CB
:10339000DFED0C7AE3E707EE903AF8EE677A022366
:1033A000C7EE276AF0BC0370C0ED066A7047D6F816
:1033B00054174160002203618261C362B9E700BF14
:1033C000B82E002000000000DFED504A10B5844602
:1033D00000F1480E0346B1EC017AD3ED067ADA6AC1
:1033E00077EE877A0132012AC3ED067ADA6255D088
:1033F00093ED075A93ED096A07EE902A77EE455A46
:10340000F8EEE77AC5EEA76A76EE857AF0EE466AC0
:1034100037EE677AC3ED087AE5EE876AC3ED0A6A8C
:10342000C3ED077AC3ED096A18337345D3D1384C1D
:103430004168D4F854270369521A816801338A42DB
:1034400003612AD990ED056A00F1300EDCF82C20DA
:10345000DCED0A6A012A02F1FF3126DD07EE901A3F
:10346000F8EEE77A86EEA77AB5EEC07AF1EE10FABA
:103470001BDBF1EEC77AF4EE677AF1EE10FA14D6A0
:10348000E645B4EEE76A0CF1180C16D0F1EE10FA2E
:10349000DCD5037B6BB30323037010BDF0EE477ADA
:1034A000F0EE646A83ED087ABAE7DFED187AE64554
:1034B000B4EEE76A0CF1180CE8D1F1EE10FAE8D49A
:1034C00007EE903AD0ED066A90ED0C7AD0ED125AE4
:1034D000F8EE677A022386EEA76A0370C7EE276AC2
:1034E00085EEA77A80ED066AC0ED0C6A80ED127A4F
:1034F00010BD0022D4F85417416003618261C36299
:10350000026343648264C36510BD00BF0000000015
:10351000B82E0020B0EEC06AF0EEE05AF4EEC65AC3
:10352000F1EE10FAF0EE407A0EDCB5EE400AF1EE64
:1035300010FA4BD0F4EEC65AF1EE10FAF0EE466AED
:1035400050D5B0EE655A03E0F0EE656AB0EE465A2B
:1035500085EE267A9FED252A9FED253A9FED254A97
:10356000DFED254ADFED252ADFED253ADFED256A7F
:10357000A7EE023AE7EE223AA7EE034AB7EE005A68
:10358000E7EE044AA7EE235AE7EE246AF4EEC65AA1
:10359000B1EE667A87EE050AF1EE10FA48BF9FEDAC
:1035A0001A7AF5EEC00A48BF37EE400AF1EE10FA7B
:1035B00048BF9FED167AF5EEC07A48BF37EE400A55
:1035C000F1EE10FA48BFB1EE400A7047DFED107A15
:1035D0009FED100AF5EEC00AF1EE10FA58BFB0EEFA
:1035E000670A7047B0EE465AB2E700BF39094E3D50
:1035F000E3B59EBE88FA16BE45FE7FBF99FB243F09
:1036000069A2163EA7DFA8B4DB0FC93FDB0F494014
:10361000A7DFA834DA0F4940F7EE007AF0EEC06A6F
:1036200077EEE67AB0EE407AF5EEC07AF1EE10FA77
:1036300022DBF1EEE75AF4EE655AF1EE10FA1BD6F2
:103640009FED0F5ADFED0F7A9FED0F6A9FED0F0A86
:10365000E6EE857AB5EEC07AA7EEA66AF0EE407A7D
:10366000E6EE267AF1EE10FA27EEA50A44BFDFED6A
:10367000087A37EEC00A7047DFED065AE0E700BF70
:10368000306E99BC2716983D843459BEA40DC93FAD
:10369000DB0F4940000000002DE9F04F4FF000091A
:1036A00089B0864600F110050646034600F1300851
:1036B000074648462C46CDF80CE08B469C46B24661
:1036C00000283CD10CF1040CA445FBD1032800F1E7
:1036D000010151D09C46AA46029398B1DCED047AD0
:1036E0000192AAEB0903B6467246F3EC016A92ED29
:1036F000007AE6EEC77A53450EF1100ECCED047A4F
:10370000F2D1019ADCED046A15ED047AC6EE877AEF
:103710000CF1100CC4450AF1100ACCED007ADCD192
:10372000029B04361433084608F10408143510349B
:10373000103709F104099C46B2460028C2D0DCEDDE
:10374000007A0192D64639467246F1EC016A92ED52
:10375000007AE6EEC77A99420EF1100ECCED007AAF
:10376000F2D10CF1040CA445019A0AF1040AE6D145
:10377000032800F10101ADD1DDF80CE0002359462A
:1037800004930593069307937646774604AD00208D
:10379000F2EC017AE5EC017AB0B104AC3B46B4EC52
:1037A000017AF3EC016AE6EEC77AB34245ED017A9D
:1037B000F5D1013004280BD0F2EC017A1037143621
:1037C000E5EC017A0028E8D1103714360120DFE754
:1037D00008AD75ED017A10310EF1400E04287446E3
:1037E000A1F1040241ED017A1ED07346F3EC016AA7
:1037F000B1EC017AE6EEC77AA342C2ED007AF5D1C8
:103800005EED016A87EEA67A013882ED007A17D064
:10381000AEF1140E103C114675ED017A0428A1F1A9
:10382000040241ED017AE0D15EED016A87EEA67AED
:10383000103CAEF1140E032001ED017A1146EBE7C6
:1038400009B0BDE8F08F00BFDFED297AB4EEE70ADA
:10385000F1EE10FA28DD9FED277A30EE470AB4EE3C
:10386000E70AF1EE10FAF8DCDFED237AB4EEE70AAE
:10387000F1EE10FA2FDD30EE670A37EEC00A60EE87
:10388000007A9FED1E7A9FED1E6ADFED1E6AA7EE9D
:10389000876A9FED1D7AE7EE866A60EE275AA7EEEB
:1038A000A67AA5EE870A7047DFED187AB4EEE70A2C
:1038B000F1EE10FAD8D59FED0F7A30EE070AB4EE8C
:1038C000E70AF1EE10FAF8D4DFED0B7AB4EEE70A6E
:1038D000F1EE10FACFDC9FED0E7AB4EEC70AF1EEEE
:1038E00010FA44BF30EE270A37EE400AC7E700BFA0
:1038F000DB0F4940DB0FC940DB0FC93F9A7C2E36F6
:10390000FAAF4FB93587083CA4AA2ABEDB0F49C0DD
:10391000DB0FC9BF10B5404CB4FBF2F4A14219D380
:10392000DFED3E7AF7EE005AB0EE677AB0EE676AE6
:10393000F0EE676A0023C0ED005AC0ED017A80ED19
:10394000027A80ED036AC0ED046A83614361036219
:10395000C36110BD07EE902AB8EE677ADFED307ACA
:1039600027EE277AB7EE006AC6EE076A07EE901ACE
:103970009FED2C7AF8EE677AB0EE405A67EE877AC0
:10398000C7EEA64AFDEEE47A17EE902A2032402ACE
:103990003FD8B0EE640AFFF757FFB0EE404ADFEDC4
:1039A000227A34EEA70AFDEEC07A17EE902A203272
:1039B000402A29D8FFF748FFF8EE006A60EE266A31
:1039C000012B1CD0B7EE006A36EE406AF6EE004AD4
:1039D00066EE244A35EE055AF7EE007A84EE057A53
:1039E00077EE275A37EEC75A84EEA57AC6EE257AC7
:1039F00086EEA56AC5EE256AF0EE475A9AE7B0EE64
:103A0000666AF7EE004AE5E7DFED086A9FED030A14
:103A1000D6E79FED024AC2E720A1070000000000A0
:103A2000BD378635DB0FC940DB0FC93F0000008082
:103A3000DFED077A30EE270AFDEEC07A17EE903AF6
:103A40002033402B00D8FFE69FED020A704700BFED
:103A5000DB0FC93F0000000030B54E4B93F8CC0699
:103A6000022883B00D46144617D0DFED4B7A7DB1A6
:103A70009FED4A7A9FED4A6ADFED4A6A67EEA77AC0
:103A800067EE877A87EE867A77EE267AC5ED007A3A
:103A90000CB1454B236003B030BD444A93F828076E
:103AA000D2F89C2002F0020138BB520525D429B37C
:103AB000B3F94E2707EE902AB3F94C27B3F95037E4
:103AC000F8EEE77A06EE902A27EEA77AF8EEE66A95
:103AD00007EE903AA6EEA67AF8EEE77AA7EEA77A76
:103AE000B5EEC07AF1EE10FABFDBF1EEC77AF4EE74
:103AF000677AF1EE10FABAD7B7E721B9D3F8683789
:103B0000D3ED337AB3E70DF106002DF0DDFE284A40
:103B1000BDF80630D2F8B41C9FED267ADFED266A98
:103B20005B1A07EE903AF8EEE77AB0EE405A67EE8D
:103B3000877A9FED227AA7EEA67AFDEEC77AB0EEDD
:103B4000470A17EE903A2033402B20D8FFF77CFE2F
:103B50001B4B92F8DA181846A3F12C02443B0029BB
:103B600018BF1346174A93ED057AD0ED006AD2EDDF
:103B7000027AE5EE406A77EE877A27EEA77AA6EE1C
:103B8000A67AB5EEC07AF1EE10FAAEDA6DE79FEDE7
:103B9000020ADDE7B03F002000000000CDCC9C3FD2
:103BA00000409C4682E6C547331390430000001056
:103BB000B82E00200AD7233C35FA8E3CDB0FC93FD4
:103BC000803B0020DC4600202DE9F84FDDF82CB0CA
:103BD0009DF828408946002C1BF8011B0CBF4FF0B4
:103BE00020084FF030081C1E0546174608463ADBF1
:103BF00000295CD0002C55D04FF0000A5B4600E055
:103C000064B313F8016B013C002EF9D1BAF1000F37
:103C10002FD1264644B14D454146284600D2B847EB
:103C2000013CF8D10B9B18780146A0B14FF0FF344E
:103C30004FF0000A00E09B464D45284600D2B847A9
:103C40005B4613F8011B0029F5D10B9BF61A5E4465
:103C5000BAF1000F10D13046BDE8F88FBAF1000F6D
:103C60001BD15646E0E7634229B31C464FF0010AD8
:103C7000C4E70028E0D10646002C04F1FF3AEADD53
:103C800054464D454146284600D2B847013CF8D23B
:103C9000013656443046BDE8F88F06460028DAD093
:103CA0002646C9E72646A2464FF0FF34C4E726461B
:103CB000002CB0D1CFE76FEA040A0E46E0E700BF60
:103CC0000FB430B583B006AB0C4853F8042BD0F8D2
:103CD0007017D0F86C07019369F092FD084C054607
:103CE000D4F8380803685B6998470028F8D028465C
:103CF00003B0BDE8304004B0704700BFB03F0020C3
:103D0000C01D00200EB410B583B005AB044653F8B7
:103D1000042B0749009301A8019469F071FD019BF0
:103D200000221A7003B0BDE8104003B0704700BF16
:103D3000F10A00080CB4F0B53E4CD4F87437ADF578
:103D4000277D002B70D094F87C3799420BD9D4F89A
:103D5000802701238340134205D10DF5277DBDE85F
:103D6000F04002B07047344B344AD3F85437A2FBCA
:103D7000030292094FF47A7101FB123306A830490D
:103D8000FFF7C0FF06AB03442E49AC9A01930646E9
:103D9000ADAB01A8009369F033FD019B0A22591CC9
:103DA00001911A70019B0022591C01911A70D4F8DC
:103DB0007457BDB12B685B6A2BB128469847002821
:103DC000CBD0D4F874579DF818100029C5D00DF148
:103DD00019042B6828461B68984714F8011B002912
:103DE000F7D1BAE7D4F87877002FB6D0304426ABB5
:103DF000841CFD2206A9ADF8102018462246CDF8F5
:103E00001250ADF8165071F0D3F902220346044463
:103E100002A93846CDE9023434F090FB0DF5277D38
:103E2000BDE8F04002B07047D4F87837002B8AD153
:103E300093E700BFB03F0020B82E0020D34D6210A2
:103E4000A4240808C1080008184A10B5D2F884470D
:103E5000033004EB9003B3F5007F18D802EB810127
:103E6000C2F8843702F5F16202EB8404D1F8882F9E
:103E700020F003001044C3F50073C1F8880F0C4A0A
:103E80009B0004210020FFF755FF204610BD0021B4
:103E90000846084AFFF74EFF074AD2F8A030002430
:103EA00043F00073C2F8A030204610BDB03F0020A0
:103EB000B0240808D4240808000000102DE9F041BF
:103EC0000268214D0746002455F834309A4209D043
:103ED00001340E2CF8D11D4A00210520FFF72AFFDE
:103EE000002013E01A4B03EB8408D8F860677EB11A
:103EF000797901EB410306EBC30300221820C3E9E3
:103F0000032200FB01609F601A750430BDE8F08158
:103F100007216C20FFF798FF0146C8F8600768B1D9
:103F200031466C2271F0BEFCD8F8606705EBC40521
:103F3000C6E90056F6617663F664D9E7054A0520BE
:103F4000FFF7F8FECCE700BF147C0708E42408085C
:103F5000B82E00200C25080838B50568EB69044622
:103F6000E3B1987800B938BDB3F9042007EE902A80
:103F7000F8EEE77A0120C4ED047AB3F9062007EEE3
:103F8000902AF8EEE77AC4ED057AB3F9083007EE27
:103F9000903AF8EEE77AC4ED067A38BD092114208C
:103FA000FFF752FF0346E861DBE700BF70B5066824
:103FB000F0690D461446A0B3D0F80130CDB1D0F869
:103FC00005209FED1B7ADFED1B5ADFED1B6A07EE24
:103FD000902AF8EE677AB7EE006A77EEC77A77EE46
:103FE000A77A87EEA57A77EE467A67EEE67AC5ED90
:103FF000007AACB107EE903A9FED107ADFED106ACF
:104000009FED106AF8EEE77A67EE877A87EEA67A78
:10401000DFED0D6A77EE467A77EEA67AC4ED007A88
:1040200070BD09211420FFF70FFFF061C4E700BF46
:104030009AC9CC449AC94C460E76D74500004843ED
:1040400000E0FF4400004842339388432DE9F047E5
:104050000668F0690D461446002867D0C2680369F7
:1040600032F07F4C60D0002B5ED002894189D201B2
:104070009B1A62EB0202FDB3B0F804A0C688B0F848
:1040800002E0B0F800909FED2C7AAAFB03080AFB2F
:104090000288C0094FEAC93940EA486010EB0900BC
:1040A0004FEAE818A0FB0C0948F100080CFB08983F
:1040B000A6FB03C906FB02964FEA5C1C4FEA4E477B
:1040C000400D4CEAC66C40EAC8201CEB070C4FEAD6
:1040D000DE3E4EEB661E4FEA6858B0EB0C0068EB14
:1040E0000E08C00B40EA484007EE900AF8EEE77A67
:1040F00067EE877AC5ED007AB4B1A1FB033001FB0E
:1041000002025B0D43EAC22313F5FA6307EE903A0D
:104110009FED0A6ADFED0A6AF8EEE77A87EE867AA3
:1041200077EE267AC4ED007ABDE8F08709211420E5
:10413000FFF78AFEF06191E77B81303F0000C842C3
:104140003393884370B50668F06982B00D46144613
:10415000002848D0D0F80530DFED266A9FED267A9A
:1041600007EE903AF8EE677AD0F8013077EEE67A0B
:10417000F3EE096A67EE877AB2EE047A67EEA67A02
:10418000F4EEC77AF1EE10FA20DCBAEE047AF4EE1F
:10419000C77AF1EE10FA19D42DB19FED187A67EEB7
:1041A000877AC5ED007A7CB107EE903A9FED146AEC
:1041B000DFED146AB8EE677ADFED137AE7EE067A80
:1041C00077EEA67AC4ED007A02B070BD17EE900AC1
:1041D00072F01AFC0D4ACDE9000104210320FFF71B
:1041E000A9FD02B070BD09211420FFF72DFEF0617A
:1041F000B0E700BF00000046000080380AD77843CF
:104200000319C83D33938843000048C22825080895
:1042100003685A1C02601878704700BF03681A468A
:10422000591C016012F8021B0260587841EA002014
:10423000704700BF10B402681346511C016013F8A8
:10424000021B0360D31C5478036093781B0443EA79
:104250000423141D0460D0785DF8044B0B4343EA3B
:104260000060704712B370B50446864604E0981BA0
:1042700017D114EB0C0C15D01EF8013BA3F1410033
:10428000192811F8010BA0F1410598BF2033192D11
:10429000A2EB0E0C00F12006E9D91B1A04D100286C
:1042A000E7D170BD604670BD184670BD10467047BE
:1042B00010B402888378184C02F0030101EB41012D
:1042C000013B03EB810304EB4303C178B3F8CC302B
:1042D000A2F5FA62920840F2B55404FB02334A1E7A
:1042E0001344017942798479008903EB430301EB9C
:1042F000C301C1EB0111094B02EB8102C2EB0212B7
:10430000234403EB820300214FF47A72C3FB0201C2
:104310005DF8044B704700BFB87B070880436D38D9
:10432000F8B516461F460446394630464FF47A72B1
:10433000002372F0B9FF3C4D3C4B054483FB056004
:104340002844E917C1EB601183FB01030B44384E8D
:10435000C817C0EB631086FB003CC317354EC3EB98
:10436000AC0386FB03764FEAE37ECEEBE61EC1EBA1
:104370000116A5EB860CC0EB0015A1EB8501617160
:1043800003EB4301A0EBC10040F2B55101FB1E332A
:10439000B3F5896F84F806C020714FEA8E0637DACC
:1043A00040F2DA218B4239DCB3F5B77FB4BF4FF06E
:1043B000000E4FF0010E20490EEB4E0001EBC00144
:1043C0007546B1F8E2004FEA4E071C4907EB0E0CA8
:1043D00001EBCC0C0CF1160C0B2101E03CF8020DAA
:1043E000984212DD0139F9D11349774401EBC70135
:1043F000B1F8CC000121013306F5FA6E1B1A7544A1
:10440000A170E37022812580F8BD0131C9B2F2E7C5
:10441000032540F29650AE460627D6E7022540F225
:104420002940AE460427D0E780BC92C78988888897
:10443000ABAAAA2A73B06D16B87B0708847C07085C
:1044400030B52F4C86460D460FCC8DB0EC46ACE80F
:104450000F000FCCACE80F0094E80F001EF0030F24
:104460008CE80F000FD1274B274A03FB0EF3B2EB6A
:10447000B30F43D3254AB2EB331F34BF01220022CE
:10448000C2F11D0200E01C220EF1FF33002B01924D
:1044900040F26D12194602FB0EF2B8BF0EF1020196
:1044A00002EBA1021A491B4C81FB0301DB17A3EBB2
:1044B00061100244C3EBE1131A44253284FB02313C
:1044C0001144D317C3EBA103C3EBC303D31AADF15C
:1044D0000402EE4602EB85015EF8040FC21884FB6D
:1044E000023C9444D317C3EBAC03C3EBC303714545
:1044F000A2EB0303F0D1C01A0DB030BD1D22C3E7FB
:10450000E47C0708295C8FC2285C8F020AD7A300CD
:104510001F85EB51932449920D4B10B553E93A4353
:1045200054EA030209D1014640F201130020C1F808
:10453000023088710880088110BD064AD2F85427DD
:10454000121943F10003FFF7EBFE012010BD00BF7D
:10455000A8500020B82E002088422DE9F0414FF0ED
:1045600001043DD301FB04F4B0FBF4FC8C45F9D20B
:104570003CB3002616E0BCF1090F274698462C46AE
:1045800023DD002A0CBF4FF0570E4FF0370EF444D6
:10459000B94288F800C003F1010306F1010610D802
:1045A000B0FBF5FCB4FBF1F504FB1C00002EE2D1DE
:1045B000BCF1000FDFDCA1420AD90CF1300C03F88A
:1045C00001CB00221A70BDE8F0814FF0300EDEE71B
:1045D000B0FBF5FC2C4605FB1C00B5FBF1F5E7E74D
:1045E0008446C6E72DE9F041044694421546084644
:1045F00009D2B4FBF2F6154B05FB16441B5D00F81F
:10460000013BBDE8F081B4FBF2F69642B6FBF2F74F
:104610000CD20E4B05FB176705FB1644DA5D00F85C
:10462000012B1B5D00F8013BBDE8F081BA42B7FBEE
:10463000F2F807D9054B05FB187813F8082000F8A5
:10464000012BE7E74046FFF7CDFFF3E74C250808CD
:10465000B5EEC00ADFED347AF1EE10FACCBF30EEE1
:10466000270A30EE670ADFED317A20EE270A30B5EF
:10467000FDEEC07A87B017EE904A054684EAE470F2
:10468000002303A9A0EBE470CDE90033029367F0A7
:104690005FFD002CB4BF2D23202303A88DF800302C
:1046A00071F06EFD012829D0022833D003281DD0D7
:1046B00003A9684671F0A6FC684671F061FDC41E4E
:1046C000E4B222466946284670F072FD00232B555D
:1046D000284671F055FD2E232B5401300DEB0401BB
:1046E000284471F0AFFC284607B030BD302303A941
:1046F00068468DF8013071F085FCDDE743F2300249
:10470000302303A96846ADF801208DF8033071F01D
:1047100079FCD1E743F2300303A96846ADF80130D4
:1047200071F070FCC8E700BF6F12033A00007A44D2
:104730000278202A034600F10100F9D0092AF7D0B7
:104740002D2A29D02B2A03BF5A78B7EE000A034638
:10475000B7EE000AA2F13001C8B20928DFED4C7AA9
:1047600010D8F2EE046A07EE101AB8EEC77A13F802
:10477000012FA7EEA67AA2F13001C8B20928F0EE07
:10478000477AF0D92E2A49D0197801F0DF0145295E
:1047900007D020EE270A70475A78BFEE000A03467A
:1047A000D8E710B459782D2962D02B2954D0A1F123
:1047B0003002092A03F1010355D80024002202EB3C
:1047C000820201EB420213F8011FA1F13000092817
:1047D000A2F13002F3D9B2F59A7F134628BF4FF405
:1047E0009A73072A50D9DFED2B6A1A46B7EE007A82
:1047F000083A072A27EE267AFAD803F007032BB1E6
:10480000F2EE046A013B27EE267AFBD16CB3C7EEC9
:10481000877A5DF8044B20EE270A70475978A1F19A
:104820003002D0B2092803F10103AED8F2EE046AD7
:10483000F0EE665A07EE102AB8EEC77A13F8011F99
:1048400087EE266AA1F13002D0B2092866EEA56A89
:1048500077EE867AEED998E79978A1F13002092AA5
:1048600003F10203A9D9B7EE007A67EE877AD0E7A1
:104870009978A1F13002092A03F1020388BFB7EE4B
:10488000007AC4D8012499E7B7EE007AB7E700BFF1
:104890000000000020BCBE4C0378202B024600F133
:1048A0000100F9D0092BF7D02D2B08BF5378A3F1C5
:1048B0003001CBB206BF02464FF0FF3C4FF0010C77
:1048C000092B4FF0000000D9704712F8013F00EBB0
:1048D000800001EB4000A3F13001CBB2092BF4D9E9
:1048E0000CFB00F0704700BF70B5344D2B787E2B69
:1048F00001D0002070BD08224FF4FC4341F221009A
:1049000019B200294FEA4303B6BF80EA41019BB2C6
:104910008BB2013AF4D1B5F8011069B32848294C9B
:10492000A042E6D206384618A642E2D241F2210C55
:104930000529DED9864214D0013806F1FF3E10F871
:10494000012F082183EA02231AB2002A4FEA430307
:10495000B6BF8CEA42029BB293B20139F4D17045E2
:10496000EDD1318849B1B21DA242C2D27218A24221
:104970003046BED21646DBE7134E741E41F22100CC
:10498000A44614F8012F082183EA02231AB2002A50
:104990004FEA4303B6BF80EA42029BB293B20139A9
:1049A000F4D16645ECD17288D01A084A331D5B1BDE
:1049B000B0FA80F0400922F8E03C70BD00000E081B
:1049C00007000E080000100801000E08A850002083
:1049D0002DE9F04FB34BB44A93F89C3702EB4303F5
:1049E0008FB093F84D3013B1012004F01FFAAF4E91
:1049F000AF4B4FF0030AF31A03934FF00009D3466D
:104A00003746AB4B0793039BAA4ACDE90A99CDE9F8
:104A10000C99CDE908731369002BC0F2DB81A54B1B
:104A2000F322DA60A44ACDF830900123BA428DF81F
:104A3000343000F2BF810B937E238DF8283008219B
:104A40004FF4FC4341F221001AB2002AABBF5B00D5
:104A500080EA42029BB293B20139F5D1974AADF890
:104A60001230974B934280F0D7819846904B029733
:104A7000394641F221051A46B8F80200B8F800306C
:104A80008DF81990C0F30B06B41DADF81440C3F3B4
:104A90000B041B0B8DF818300304ADF8164000F121
:104AA000118106328A4200F2848105AF0DF11A0AA3
:104AB0003C4601E0A24513D00B9B14F8011B03F107
:104AC00038026A440133042B02F8101C0B93F1D115
:104AD0000AA907A8FCF79CF9A245CDE90B90EBD1F8
:104AE0000C9B002BC0F26581BDF8124017F8013B0A
:104AF000082284EA032423B2002BABBF640085EABA
:104B00004303A4B29CB2013AF5D15745EED1D8F88F
:104B100004A03246514607A8FCF73AFA0028C0F232
:104B200048810AEB0600824513D00AF1FF310138B3
:104B300011F8013F082284EA032423B2002BABBF03
:104B4000640085EA4303A4B29CB2013AF5D18142E4
:104B5000EED1ADF81240DDE90740584B08F11408DA
:104B600098452246014687D3029F234602330026FA
:104B70009942ADF81460C0F01D8105ADA8460DF155
:104B80001604AA4601E0544513D00B9B1AF8011BEA
:104B900003F138026A440133042B02F8101C0B9312
:104BA000F1D10AA907A8FCF733F95445CDE90B6008
:104BB000EBD10C9B002BC0F2FD80BDF8123041F20E
:104BC000210018F8012B082183EA02231AB2002AD7
:104BD000ABBF5B0080EA42029BB293B20139F5D1D0
:104BE000A045EED1ADF81230079B089A02339342EC
:104BF00000F2E0800E460DF1120401E0AC4213D049
:104C00000B9B14F8011B03F138026A440133042B97
:104C100002F8101C0B93F1D10AA907A8FCF7F8F8C9
:104C2000AC42CDE90B60EBD10C9C002CC0F2C280F1
:104C30000B98002800F0DA80079B089A03449342FF
:104C400000F2B8800AABC0F104020021184470F0F1
:104C500029FE0AA907A8FCF7DBF8002804460C90F7
:104C6000C0F2A8809DF83430002B40F0BF80BBF12B
:104C7000010B00F0C180002C7FF4C3AE094B0A4A3F
:104C800093F89C3702EB430393F84D3013B1204661
:104C900004F0CCF8FFF728FE002800F098800FB051
:104CA000BDE8F08FB82E0020B87B07080000100880
:104CB00000000E08003C024001000E08489D080854
:104CC000F897080800231F469A46CDF804B00AF169
:104CD000010A931D5FFA8AFA8B428DF819A066D8F3
:104CE0000DF1140C0DF11A0B6446CDF800C001E073
:104CF0005C4514D00B9B14F8010B03F138020DEB4B
:104D000002010133042B01F8100C0B93F0D10AA916
:104D100007A8FCF77DF85C45CDE90B90EAD10C9B28
:104D2000DDF800C0002B42DBBDF812401CF8013B4F
:104D3000082284EA032423B2002BABBF640085EA77
:104D40004303A4B29CB2013AF5D1E345EED1D8F8C1
:104D5000041001EB070B3246594607A8FCF718F977
:104D6000002824DB0BEB0600834513D00BF1FF3149
:104D7000013811F8013F082284EA032423B2002BF2
:104D8000ABBF640085EA4303A4B29CB2013AF5D1FB
:104D90008142EED1ADF81240DDE90740BAF1030FD0
:104DA00037442246014692D1DDF804B0D5E6DDF85D
:104DB00004B0029FBBF1010B7FF423AE184B194ADC
:104DC00093F89C3702EB430393F84D3043B9052029
:104DD00005F088FB144B536003F1883353601EE6E3
:104DE000584604F023F8052005F07CFB0F4A1369B0
:104DF00043F0004313613AE7094B0A4A93F89C37A2
:104E000002EB430393F84D3013B1584604F00EF80B
:104E1000002C3FF43FAFDAE7054B3946A6E600BF6A
:104E2000B82E0020B87B070823016745003C0240EC
:104E300000000E0870B545880B460446C5F30B0507
:104E40002A460021184670F02DFD0A4A2169914238
:104E5000034606D3084A914206D3BDE8704018467F
:104E600008470029F9D170BD2A46BDE8704070F0AE
:104E70009FB900BF489D080843A2080810B5044622
:104E8000C06900B110BD09211420FEF7DDFFE0610B
:104E900010BD00BF194B03EB8003D3F83C0848B3A7
:104EA00010B5174C00EB400004EB800313F9DBCC8A
:104EB000BCF1FF3F1FD013F8D30CD0B104EB0C02B0
:104EC00013F8D40C12F888EC8C23142103FB0CFC8F
:104ED00000220CEB000304EB4303013933F8843C5C
:104EE000704412FA83F2F4D1064BA3FB0230C0F3F4
:104EF0000F1010BD7047002010BD00BFC01D002066
:104F0000A8500020CDCCCCCC30B5032083B00D46CA
:104F10001446FFF7BFFF01909DB107EE900A9FED89
:104F20000B7AF8EE677AF0EE006A67EE877AB8EEF1
:104F3000047AA7EEA67ADFED067A67EE277AC5ED4A
:104F4000007A0CB1034B236003B030BD6740533A85
:104F500000007A4433139043F0B170B506680F4BEC
:104F600006F13F4202F57E0203EB92230C4682B02B
:104F7000054693F85C0167F09DF86209C4F30013DD
:104F8000A9883046CDE90032C4F3810304F003025E
:104F90006DF006FC02B070BD704700BFB87B07081B
:104FA00010B503681A79022A044603D0002323713E
:104FB000236010BD987A6DF04DFCF7E7034690F939
:104FC00010002DE9F041244C00EB800016469A6851
:104FD00004EB80009207D0F8808709D540466DF039
:104FE000ABFC314640466DF0A7FC0120BDE8F081E6
:104FF0005D69084615B12B68AA885A83174B184F6C
:10500000D3F89847174B7A684FEAC40CA3FB0C3CC3
:105010004FEA9C1C7B689B1A9C45FBD2014640468C
:105020006DF08AFC314640466DF086FC0D4B786889
:105030000B494FF4FA7204FB02F2A3FB023292090D
:105040004B681B1A9A42FBD2002DCED02B68AA883F
:105050001A830120BDE8F081F8100020B82E00204E
:10506000001000E0D34D621000B590F804E0BEF1EE
:10507000020F02D000205DF804FB83685DF804EBAA
:10508000DB075CBF8C460CF07F0197E70068037973
:10509000022B01D0002070478368DB074FF0F0023D
:1050A00001D5FF218AE77F2188E700BF00680379E7
:1050B000022B01D0002070478368CA4341EA0211E5
:1050C000DB07CAB201D5D22178E7522176E700BFCB
:1050D00000680379022B01D0002070478368DB074A
:1050E0004FF0B40201D5FF2168E77F2166E700BFDA
:1050F00000680379022B01D0002070478368DB072A
:105100000A4601D5A52159E7252157E7006803790B
:10511000022B01D0002070478368DB074FF0960216
:1051200001D5FF214AE77F2148E700BF00680379E6
:10513000022B01D0002070478368DB070A4601D5A7
:1051400087213BE7072139E700680379022B01D06B
:1051500000207047C901CAB278212FE7006803799F
:10516000022B01D0002070478368DB074FF0550207
:1051700001D5A52122E7252120E700BF2DE9F04335
:1051800006683379022B89B0804604D1B6227E218D
:105190003046FFF713FF642705F044F904460D4637
:1051A00005F040F9001B61EB0501B0F57A7F71F164
:1051B0000001F5D3013FEFD13179022900F0C3811D
:1051C000736913B11A689B88538305F02BF9044661
:1051D0000D4605F027F9001B61EB0501B0F57A7F5C
:1051E00071F10001F5D3736913B11A689B881383B9
:1051F0000A2705F017F904460D4605F013F9001BC0
:1052000061EB0501B0F57A7F71F10001F5D3013F43
:10521000EFD13379022B04D13A467C213046FFF797
:10522000CDFE05F0FFF804460D4605F0FBF8001B27
:1052300061EB0501B0F57A7F71F10001F5D33379A7
:10524000022B08D1B36813F0010218BF00225921C4
:105250003046FFF7B3FE05F0E5F804460D4605F0CD
:10526000E1F8001B61EB0501B0F57A7F71F10001F7
:10527000F5D396F91030B64A03EB830302EB8303B0
:10528000B268D3F880475E2192078DF81F1040F175
:10529000468101230DF11F02002120466DF0FCFA2A
:1052A0004FF4A473AB4A204600216DF0F5FAB368C1
:1052B0009B0740F11B810A2705F0B4F804460D4610
:1052C00005F0B0F8001B61EB0501B0F57A7F71F1D4
:1052D0000001F5D3013FEFD13379022B04D1012234
:1052E00059213046FFF76AFE05F09CF804460D464A
:1052F00005F098F8001B61EB0501B0F57A7F71F1BC
:105300000001F5D33379022B04D18C2240213046A1
:10531000FFF754FE05F086F804460D4605F082F8C6
:10532000001B61EB0501B0F57A7F71F10001F5D347
:105330003379022B04D1032241213046FFF73EFE90
:1053400005F070F804460D4605F06CF8001B61EBA3
:105350000501B0F57A7F71F10001F5D3D8F8382056
:105360007D4DB5FBF2F57D4A98F83530ADB202F1CE
:1053700012094FF44861174610780C4698B95088C6
:10538000A5EB000EA5EB010CBEF1000FB8BFCEF1EE
:10539000000EBCF1000FB8BFCCF1000CE645BEBF5B
:1053A00017460146044606324A45E5D17A79049209
:1053B0003A79CDE902423A780321CDE90052012041
:1053C000674AFEF7B7FC7A88634BB3FBF2F3C8F881
:1053D00040303379022B06D13A79422142F0C002A3
:1053E0003046FFF7EBFD05F01DF804460D4605F0CD
:1053F00019F8001B61EB0501B0F57A7F71F100012E
:10540000F5D33379022B04D1082243213046FFF72C
:10541000D5FD05F007F804460D4605F003F8001B1E
:1054200061EB0501B0F57A7F71F10001F5D33379B5
:10543000022B04D1042258213046FFF7BFFD04F0AF
:10544000F1FF04460D4604F0EDFF001B61EB050182
:10545000B0F57A7F71F10001F5D33379022B04D1D5
:105460000A2253213046FFF7A9FD04F0DBFF044672
:105470000D4604F0D7FF001B61EB0501B0F57A7F04
:1054800071F10001F5D33379022B08D1B36813F021
:10549000010218BF00227C213046FFF78FFD04F087
:1054A000C1FF04460D4604F0BDFF001B61EB050182
:1054B000B0F57A7F71F10001F5D33379022B04D175
:1054C00006227D213046FFF779FD04F0ABFF04464C
:1054D0000D4604F0A7FF001B61EB0501B0F57A7FD4
:1054E00071F10001F5D309B0BDE8F0831D4B1E49F1
:1054F000D3F898271D4B48684FF4FA7404FB02F266
:10550000A3FB023292094B681B1A9A42FBD27369C1
:10551000002B3FF4D0AE1A689B881383CBE67369E7
:1055200013B11A689B8853830E4B0F49D3F8982701
:105530000E4B4868D200A3FB023292094B681B1A3B
:105540009A42FBD2A5E696F910006CF085FC37E68E
:10555000F8100020307D070840420F001C7D07082E
:1055600074250808B82E0020001000E0D34D62100A
:1055700038B505680446E869A8B1C3682A791B0EE6
:1055800003D1022A09D0002038BD022AFBD12846C7
:105590000122BDE83840582110E528460122BDE827
:1055A000384048210AE509211420FEF74DFCE86146
:1055B0002568E2E72DE9F04105461F4695F91030D0
:1055C000254803EB830300EB8300AB68D0F88087AA
:1055D00016469A070ED540466DF0AEF93B46324668
:1055E000002140466DF058F9AB689B0719D50120A2
:1055F000BDE8F0816B6913B11A689B885383174B20
:10560000174AD3F898374FEAC30E164BA2FB0E2E5B
:105610005A684FEA9E1E5C68A4EB020CE645FAD27B
:10562000D9E70E4B0F49D3F898270D4B4FF4FA707A
:1056300000FB02F2A3FB0232486892094B681B1A76
:105640009A42FBD26B69002BD1D01A689B881383D6
:105650000120BDE8F08100BFF8100020B82E002026
:10566000D34D6210001000E02DE9F04105461F46C1
:1056700095F91030254803EB830300EB8300AB68FA
:10568000D0F8808716469A070ED540466DF054F93B
:105690003B460022314640466DF0FEF8AB689B0762
:1056A00019D50120BDE8F0816B6913B11A689B8898
:1056B0005383174B174AD3F898374FEAC30E164B4C
:1056C000A2FB0E2E5A684FEA9E1E5C68A4EB020CE9
:1056D000E645FAD2D9E70E4B0F49D3F898270D4B80
:1056E0004FF4FA7000FB02F2A3FB02324868920901
:1056F0004B681B1A9A42FBD26B69002BD1D01A68F7
:105700009B8813830120BDE8F08100BFF8100020C2
:10571000B82E0020D34D6210001000E010B50479BF
:10572000022C01D0002010BD8468E4075CBF8E46C7
:105730004EF08001BDE8104096E700BF70B50668E6
:10574000F56904467DB33379022B03D00023AB7097
:10575000002070BDB36813F0010F05F103024FF094
:105760000D03304614BF0C218C21FFF77DFFA8707C
:105770000028EDD0B5F90A3007EE903AF8EEE77A56
:10578000C4ED077AB5F90C3007EE903AF8EEE77AF7
:10579000C4ED087AB5F90E3007EE903AF8EEE77AE4
:1057A000C4ED097A70BD09211420FEF74DFBF061AC
:1057B00005462668C7E700BF00680379022B01D0C1
:1057C0000020704710B5836882B013F0010F0C46BB
:1057D0004FF0030314BF2221A22101AAFFF744FFC7
:1057E00040B1BDF9053003EB83031B12E633238080
:1057F00002B010BD002002B010BD00BF00680379E8
:10580000022B01D00020704700B583B0012301AA0C
:10581000FF21FFF729FF03B05DF804FB70B50568B1
:10582000EE6982B00446002E60D0002333702B79DD
:10583000022B02D0002002B070BD04230DEB030246
:105840002846FF21FFF710FF0028F3D020680379D6
:10585000022BEFD104236A46FF21FFF705FF002842
:10586000E8D09DF804309B09023B012BE2D9BDF83A
:105870000430BDF80620BDF80010BDF802505BBA38
:1058800043F6FF74C3F30D03A342D3D0002BD1D052
:1058900052BAC2F34A1240F2FF7C6245CAD0002AD3
:1058A000C8D049BAC1F30D01A142C3D00029C1D06B
:1058B0006DBAC5F34A156545BCD0002DBAD05C1A47
:1058C000002CB8BF6442FF2CB4DC541B002CB8BFC2
:1058D0006442FF2CAEDC0B445B102A445210C6F825
:1058E00005300123C6F801203370A4E709211420F4
:1058F000FEF7AAFAE8610646256896E770B50668DD
:10590000F46982B04CB33379E568022B02D00020F1
:1059100002B070BDB36813F0010F14BF00218021E5
:10592000032301AA3046FFF79FFE0028EFD09DF821
:1059300005309DF804201B0243EA02439DF806202F
:105940002D0E43EA02031BBFE268236143F080731C
:1059500022F07F43E36002B070BD054609211420A8
:10596000FEF772FAF06104462E68CCE770B506685F
:10597000F46982B02CB3002323703379022B02D058
:10598000002002B070BD04230DEB0302FF2130465E
:10599000FFF76AFE0028F3D09DF804309B0919D167
:1059A000BDF80420BDF8063052BA5BBA92B2C3F318
:1059B0004A1301212170C4F80520C4F8013002B057
:1059C00070BD054609211420FEF73EFAF061044639
:1059D0002E68D0E7024A04210320FEF7ABF9CFE797
:1059E000B025080870B50446244894F9103003EB3C
:1059F000830300EB8300A368D0F8806715469A07FD
:105A00000DD530466CF098FF012300222946304620
:105A10006CF042FFA3689B0717D5012070BD636936
:105A200013B11A689B885383154B164AD3F89837DD
:105A300050684FEAC30C144BA3FB0C3C4FEA9C1C70
:105A400053681B1A9C45FBD2DBE70D4B0D49D3F87D
:105A500098270D4B4FF4FA7000FB02F2A3FB0232C1
:105A6000486892094B681B1A9A42FBD26369002B63
:105A7000D3D01A689B881383012070BDF8100020D2
:105A8000B82E0020001000E0D34D621000B590F851
:105A900004E0BEF1020F02D000205DF804FB836831
:105AA0005DF804EBDB075CBF8C464CF0800199E7A6
:105AB00038B505682B79022B01D0002038BDAB68C2
:105AC000DB070C464FF0E1020BD461212846FFF7BB
:105AD00075FA0028F1D022462846FF21BDE838405B
:105AE00080E711462846FFF769FA0028E5D02246EC
:105AF0002846FF21BDE8384074E700BF38B5056887
:105B00002B79022B01D0002038BDAB68DB070C4697
